:020000040800F2
:100000007807002089010008CB100008F90E0008CD
:10001000C91000088F0200089B15000800000000AE
:10002000000000000000000000000000371300087E
:100030009102000800000000351300083913000881
:10004000A3010008A3010008A3010008A301000800
:10005000A3010008A3010008A3010008A3010008F0
:10006000A3010008A3010008A3010008A3010008E0
:10007000A3010008A3010008A3010008A3010008D0
:10008000A3010008A3010008A3010008A3010008C0
:10009000A3010008A3010008A3010008A3010008B0
:1000A000A3010008A3010008A3010008A3010008A0
:1000B0009D130008A3010008A9130008A30100086C
:1000C000A3010008A3010008A3010008A301000880
:1000D000A3010008A3010008A3010008A301000870
:1000E000A3010008A3010008A301000800F002F822
:1000F00000F03AF80AA090E8000C82448344AAF188
:100100000107DA4501D100F02FF8AFF2090EBAE885
:100110000F0013F0010F18BFFB1A43F0010318473B
:10012000E817000008180000103A24BF78C878C10A
:10013000FAD8520724BF30C830C144BF04680C60ED
:10014000704700000023002400250026103A28BF35
:1001500078C1FBD8520728BF30C148BF0B60704739
:100160001FB51FBD10B510BD00F058F81146FFF7C0
:10017000F7FF01F07BFA00F076F803B4FFF7F2FF27
:1001800003BC00F07DF8000009488047094800479B
:10019000FEE7FEE7FEE7FEE7FEE7FEE7FEE7FEE737
:1001A000FEE7FEE704480549054A064B7047000094
:1001B00099130008ED00000878010020780700205E
:1001C00078030020780300204FF0000200B51346AA
:1001D00094469646203922BFA0E80C50A0E80C5067
:1001E000B1F12001BFF4F7AF090728BFA0E80C5018
:1001F00048BF0CC05DF804EB890028BF40F8042B11
:1002000008BF704748BF20F8022B11F0804F18BF7D
:1002100000F8012B7047704770477047754600F033
:100220002BF8AE4605006946534620F00700854688
:1002300018B020B5FFF7B6FFBDE820404FF000062C
:100240004FF000074FF000084FF0000B21F00701BE
:10025000AC46ACE8C009ACE8C009ACE8C009ACE801
:10026000C0098D46704710B50446AFF300802046A4
:10027000BDE81040FFF781BF00487047180100201B
:1002800001491820ABBEFEE7260002007047FEE7DA
:100290007047000070B5044600F010F90546601C78
:1002A00002D004480078044400F008F9401BA04242
:1002B000FAD370BD140000202DE9F84FDFF8B89193
:1002C0000024A9F1040B23460F2709F1040AABF11E
:1002D000040EC9E00125A5402A40AA427DD1674EFF
:1002E000D1F804C0ACEB0608B44532D014DCBCF144
:1002F000030F3AD009DCBCF1000F2AD0BCF1010F8A
:100300001CD0BCF1020F31D11DE0BCF1110F17D090
:10031000BCF1120F2AD119E0B8F5881F19D006DCFC
:10032000B8F5803F15D0B8F5801F1FD111E0B8F5A2
:10033000001F0ED0B8F5041F18D10AE0CB6815E0F5
:10034000CB681B1D12E0CB6808330FE0CB680C3381
:100350000CE08B682BB1012B4FF0080303D04561F3
:1003600004E0042302E0056100E00023FF2A01D835
:10037000064601E000F104064FEA840501D9A5F123
:100380002005D6F8008007FA05FC28EA0C0803FAD5
:1003900005F548EA0508C6F800804D68ED0062D50D
:1003A000374DAE6946F00106AE61AD6924F0030633
:1003B00005F001050095334D06EB050CDCF80850FF
:1003C000A607360F07FA06F825EA0805DFF8B88011
:1003D000404503D14FF0000817E044E0DFF8AC805F
:1003E000404502D14FF001080FE0DFF8A4804045FE
:1003F00002D14FF0020808E0DFF89880404502D1B2
:100400004FF0030801E04FF0040808FA06F848EA44
:100410000508CCF808804D68D9F80060ED024D461B
:1004200001D5164300E096432E604D68DAF800606F
:10043000AD02554601D5164300E096432E604D6847
:10044000DBF80060AD035D4601D5164300E096433E
:100450002E604D68DEF80060ED03754601D5164349
:1004600000E096432E60641C0D682A46E5407FF448
:1004700031AFBDE8F88F0000080401400000111002
:10048000001002400000014000080140000C014043
:1004900000100140001401408068084000D0012095
:1004A0007047C26821EA02030A4043EA024101613F
:1004B00070470AB1016170470904FBE70148806891
:1004C000704700001400002002488168027811443F
:1004D0008160704714000020074810B5016841F0A2
:1004E00010010160032000F075F80F2000F006F8FD
:1004F00000F024F8002010BD0020024070B50D4D22
:1005000004464FF47A712878B1FBF0F00A49096883
:10051000B1FBF0F000F0BCFA48B9102C07D2002271
:100520002146501E00F036F800206C6070BD01209E
:1005300070BD000014000020200000200C4808B509
:10054000816941F001018161816901F0010100913E
:10055000C16941F08051C161C06900F080500090D4
:100560000448416821F0E06141F00071416008BD3C
:100570000010024000000140002809DB00F01F02CB
:10058000012191404009800000F1E020C0F80011F5
:1005900070470000F0B40E4B1B680C46C3F30223F7
:1005A000C3F10705042D00D90425191D072901D21F
:1005B000002300E0DB1E012606FA05F1491E21405A
:1005C00099409E40761E16403143F0BC00F0E6BFD5
:1005D0000CED00E0064900F0070208684FF6FF0343
:1005E000184040EA0220034A1043086070470000A8
:1005F0000CED00E00000FA052DE9F0470F4605007C
:1006000061D0434E306800F00700B84209D230682C
:1006100020F0070038433060306800F00700B8422F
:1006200051D128683B4C810712D5400703D560683B
:1006300040F4E06060602878000703D5606840F40B
:10064000605060606068A96820F0F0000843606056
:100650002878C00728D06868012810D021680228AF
:1006600010D0890700292EDA616821F003010143C7
:100670006160FFF723FF804641F288390DE0216871
:100680008903EFE78901EDE7FFF718FFA0EB080109
:10069000494502D90320BDE8F0876068696800F029
:1006A0000C00B0EB810FEFD1306800F00700B842CA
:1006B0000BD9306820F0070038433060306800F014
:1006C0000700B84201D00120E5E72878400705D5AA
:1006D0006068E96820F4E0600843606028780007FB
:1006E00006D56068296920F4605040EAC100606066
:1006F00000F018F86168084AC1F30311515CC84062
:100700000649086006480068FFF7F8FE0020C2E7C7
:100710000020024000100240CE18000820000020F7
:10072000180000200E4A51680E4801F00C03042BFB
:1007300011D0082B0FD10C48C1F38343C903C05C0F
:100740000AD55168084AC1F34041921E515C054ADE
:100750005043B0FBF1F07047044948437047000034
:100760000010024000127A00BE18000800093D0087
:100770002DE9F84F040070D02078C04DC00749D053
:100780006868C0F38100012807D06868C0F3810061
:10079000022809D16868C00306D52868800339D5C6
:1007A00060680028E7D035E06068B0F5803F0BD086
:1007B00010B1B0F5A02F11D0286820F48030286047
:1007C000286820F4802002E0286840F48030286007
:1007D000606890B1FFF772FE06460AE0286840F4B0
:1007E00080202860F0E700BFFFF768FE801B6428C8
:1007F00073D828688003F7D50CE0FFF75FFE064644
:1008000005E000BFFFF75AFE801B6428F0D8286877
:100810008003F7D420789A4E80074FF001094FF0FB
:10082000000839D5686810F00C0F07D06868C0F36D
:100830008100022809D16868C00306D428688007AF
:1008400014D52069012808D110E02069B0B1C6F89C
:100850000090FFF733FE074605E00AE1FFF72EFEA2
:10086000C01B0228C4D828688007F7D528686169AA
:1008700020F0F80040EAC10028600DE0C6F80080D2
:10088000FFF71CFE074604E0FFF718FEC01B022816
:1008900023D828688007F7D4207800072CD579481A
:1008A000A169D9B1C0F80090FFF708FE074604E03F
:1008B000FFF704FEC01B02280FD8686A8007F7D52F
:1008C00071484FF4FA510068B0FBF1F0009000BF9E
:1008D0000098411E0091FAD20EE080E0C0F800803E
:1008E000FFF7ECFD074604E0FFF7E8FDC01B022818
:1008F00075D8686A8007F7D42078400760D5E86922
:100900000027C00008D4E86940F08050E861E86939
:10091000012700F0805000905C480168C90513D49D
:100920000168834641F480710160FFF7C7FD82468C
:1009300006E000BFFFF7C2FDA0EB0A0064284ED816
:10094000DBF80000C005F5D5E06801280AD008B141
:10095000052813D0286A20F001002862286A20F0B8
:10096000040002E0286A40F001002862E06841F2D9
:10097000883B98B1FFF7A2FD82460BE0286A40F061
:1009800004002862EEE700BFFFF798FDA0EB0A0124
:1009900059455AD8286A8007F6D50CE0FFF78EFD36
:1009A000824605E0FFF78AFDA0EB0A0159454CD8C5
:1009B000286A8007F6D41FB1E86920F08050E8610A
:1009C000E06988B36968C1F38101022944D0022833
:1009D000C6F8608004D0FFF771FD044638E034E0CB
:1009E000FFF76CFD074604E0FFF768FDC01B022817
:1009F0002BD828688001F7D4206AB0F5803F05D154
:100A00006868A16820F4003008436860D4E90801F0
:100A10000843696821F4741108436860C6F860905F
:100A2000FFF74CFD044606E025E000BFFFF746FD5A
:100A3000001B022809D828688001F7D51BE000BFF9
:100A4000FFF73CFD001B022802D90320BDE8F88F08
:100A500028688001F4D40EE00128F7D06868226A83
:100A600000F48031914204D1616A00F47010884230
:100A700001D00120EAE70020E8E700000010024072
:100A800000004242800442422000002000700040EA
:100A900010B5401EB0F1807F01D3012010BD4FF092
:100AA000E02460610F21601700F078FD0020A06154
:100AB00007202061002010BD7047704770B590F886
:100AC0003C20012A26D0012480F83C40022280F8F4
:100AD0003D2003685A689D6822F070060A68324318
:100AE0005A600D4B02689A4208D0B2F1804F05D08F
:100AF0000A4B9A4202D00A4B9A4204D1496825F027
:100B000080031943916080F83D40002180F83C103B
:100B1000084670BD022070BD002C0140000400405A
:100B20000008004010B5040003D094F83D0010B157
:100B300007E0012010BD002084F83C00204600F0B2
:100B40001FF8022084F83D00211D206800F0BAFC47
:100B5000012084F8460084F83E0084F83F0084F8C1
:100B6000400084F8410084F8420084F8430084F88F
:100B7000440084F8450084F83D00002010BD0000CA
:100B800008B51A4A01681A48914208D1816941F4AE
:100B900000618161806900F40060009008BDB1F1DE
:100BA000804F14D0134A9142F8D1C16941F0040139
:100BB000C161C069002200F00400009001211E20E4
:100BC000FFF7E8FC1E20BDE80840FFF7D5BCC1696F
:100BD00041F00101C161C069002200F001000090F4
:100BE00011461C20FFF7D6FC1C20ECE7002C01402E
:100BF000001002400008004090F83D10012901D08B
:100C000001207047022180F83D1000680B4988429E
:100C100008D0B0F1804F05D00949884202D0094977
:100C2000884204D1816801F00701062903D00168D8
:100C300041F001010160002070470000002C0140DC
:100C4000000400400008004090F83D10012901D048
:100C500001207047022180F83D100168CA6842F007
:100C60000102CA6000680B49884208D0B0F1804F89
:100C700005D00949884202D00849884204D18168D8
:100C800001F00701062903D0016841F0010101606C
:100C900000207047002C0140000400400008004084
:100CA00070B5044690F83C000025012817D00126B5
:100CB00084F83C60022084F83D002068826822F0BD
:100CC000770222F47F4282600868502838D00DDC19
:100CD00020284FD005DC90B3102811D14AE0022023
:100CE00070BD302846D040280AD13BE060282FD084
:100CF00070280DD0B0F5805F03D0B0F5005F12D042
:100D0000012584F83D60002084F83C00284670BD31
:100D1000CB68D1E90121206800F00AFC20688168D5
:100D200041F0770109E0CB68D1E90121206800F0AA
:100D3000FFFB2068816841F480418160E1E719E0B0
:100D4000CA684968206800F005FC5021206806E068
:100D5000CA684968206800F00EFC6021206800F035
:100D6000F1FBCEE7CA684968206800F0F3FB402138
:100D70002068F4E7226801461046F0E7704770B536
:100D80000446006801694FF00005C943890715D47E
:100D9000C168C943890711D4E91E01610120207788
:100DA000206880698007204602D0FFF7E7FF04E053
:100DB00000F098F8204600F096F825772068016941
:100DC000C943490717D4C168C943490713D46FF011
:100DD00004010161022020772068806910F4407FBF
:100DE000204602D0FFF7CAFF04E000F07BF820465F
:100DF00000F079F8257720680169C943090716D4FE
:100E0000C168C943090712D46FF0080101610420C9
:100E100020772068C0698007204602D0FFF7AEFF28
:100E200004E000F05FF8204600F05DF825772068C8
:100E30000169C943C90617D4C168C943C90613D497
:100E40006FF010010161082020772068C06910F45C
:100E5000407F204602D0FFF791FF04E000F042F807
:100E6000204600F040F8257720680169C943C9078A
:100E700008D1C168C943C90704D1891E0161204650
:100E800000F032F820680169C943090609D4C16835
:100E9000C943090605D46FF0800101612046FFF7C0
:100EA0000BFE20680169C943490609D4C168C943DA
:100EB000490605D46FF040010161204600F01BF89F
:100EC00020680169C94389060BD4C168C9438906F2
:100ED00007D46FF0200101612046BDE87040FFF7A4
:100EE000ECBD70BD704770470068B0F1804F01D114
:100EF00000F0B0B970477047FEE700002DE9F043FD
:100F000085B00024214800940194029403948169DF
:100F100041F004018161816901F00401049181695A
:100F200041F0080181618069DFF8648000F0080009
:100F300040F67C750490002229464046FFF7B9FA36
:100F4000DFF850904FF6C377002239464846FFF746
:100F5000B0FA0095022601250396CDE901546946B1
:100F60004046FFF7A9F98020CDE9000469464046D4
:100F70000294FFF7A1F900970396CDE90154694661
:100F80004846FFF799F905B0BDE8F083001002402C
:100F900000080140000C014010B586B0002417483D
:100FA00000940194029403940494134905940160FD
:100FB0003F21C0E901144FF6FF71C0E903144461F9
:100FC0008461FFF7AFFD08B172B6FEE74FF48050C1
:100FD000009069460948FFF763FE08B172B6FEE764
:100FE000049404A905480594FFF768FD002801D082
:100FF00072B6FEE706B010BD002C01402C000020A8
:1010000010B586B00024164800940194029403940D
:1010100004944FF080410594016041F6FF01C0E95E
:1010200001144521C0E903148461FFF77BFD08B179
:1010300072B6FEE74FF48050009069460848FFF70B
:101040002FFE08B172B6FEE7049404A90448059483
:10105000FFF734FD002801D072B6FEE706B010BDE0
:101060007400002010B586B0002416480094019446
:101070000294039404941249059401603F21C0E94D
:1010800001140921C0E903148461FFF74BFD08B185
:1010900072B6FEE74FF48050009069460948FFF7AA
:1010A000FFFD08B172B6FEE7049404A90548059453
:1010B000FFF704FD002801D072B6FEE706B010BDB0
:1010C00000080040BC000020FEE7FEE700B5084A2B
:1010D00087B007CA8DE807000020039004900590B0
:1010E000092203A9684600F005F807B000BD00001A
:1010F000F01800082DE9F041DFF8408015460E4653
:101100000746002210214046FFF7D3F9082000F0DF
:101110006FFA002405E0385D00F062F83055641C79
:10112000E4B2AC42F7D3012210214046FFF7C1F9E7
:10113000BDE8F041082000F05BBA00000008014063
:101140001FB507490522D1E90201CDE900010020C0
:101150000290039002A96846FFF7CCFF1FBD000074
:10116000E018000800B508A287B007CA8DE807009C
:101170000020039004900590092203A96846FFF718
:10118000B9FF07B000BD0000014300005A5A5A5A87
:101190005A000000084A10B5C2E90010FFF72CFD04
:1011A00000F00CF8FFF7CCFFFFF790FF00F006F817
:1011B000BDE81040FFF7D6BF240000201FB5074947
:1011C0000522D1E90001CDE9000100200290039041
:1011D00002A96846FFF78EFF1FBD0000E018000857
:1011E0002DE9F04100251A4E074601244FF6FF78FD
:1011F0003C4201D0012200E0002240213046FFF7AE
:1012000058F9012220213046FFF753F9082000F059
:10121000EFF9002220213046FFF74BF9082000F0BB
:10122000E7F9012220213046FFF743F980213046BB
:10123000FFF732F908B12543EDB208EA4404FF2C68
:10124000D6D9082000F0D4F92846BDE8F081000086
:101250000008014000B5354A87B003AB07CA83E8F0
:10126000070000200090019002900922694603A81F
:10127000FFF740FF9DF80100412801D0732853D1AA
:101280002B48BDF80310006841F30002521C0270A5
:1012900041F34002521C427041F38002521C8270A2
:1012A00041F3C002521CC27041F30012521C027181
:1012B00041F34012521C427141F38012521C827160
:1012C00041F3C012521CC27141F30022521C02723F
:1012D00041F34022521C427241F38022521C82721E
:1012E00041F3C022521CC27241F30032521C0273FD
:1012F00041F34032521C427341F38032521C8273DC
:10130000012282EAD131C1739DF8011073290BD1FA
:101310009DF8051001749DF8061041749DF80710A2
:1013200081749DF80810C17407B000BDFC18000856
:101330002400002070477047FFF7C6B830B58FB063
:1013400028216846FEF740FF14210AA8FEF73CFF5B
:1013500002250120049000951020059000244FF4F0
:101360006010CDE9084007956846FFF701FA08B11B
:1013700072B6FEE70F20CDE90A054FF48060CDE993
:101380000C4002210AA80E94FFF736F9002801D07C
:1013900072B6FEE70FB030BD704700000148FFF79E
:1013A000EEBC0000740000202DE9F04139483A4EAF
:1013B0003A4F007800253A4C01280CD1207831882A
:1013C000884202D2401C207005E025704FF4805105
:1013D0003846FFF766F83348007801280CD160786A
:1013E0003188884202D2401C607005E065704FF47D
:1013F00000413846FFF755F82B4E3078012830D1A0
:101400002A49A0780A88904202D2401CA07028E0A5
:101410002748A570007810B1012803D005E0A08806
:10142000401E01E0A088401CA080E08844F63922DC
:10143000A0F598508838904202D30820088000E038
:101440000D8080213846FFF72CF84FF48071384624
:10145000FFF727F8A08847F2AA41401E884200D330
:1014600035701448007801280FD11349E0780988B5
:10147000884202D2401CE07007E0E570E088082155
:10148000401CE0800D48FFF70CF8BDE8F0410C4827
:10149000FFF775BC0000002006000020000C014092
:1014A0000C00002001000020020000200A000020A3
:1014B0000400002003000020080000200008014074
:1014C000BC000020F0B50268164B174C174D4FF0CA
:1014D0008047984205D0B84203D0A04201D0A8422C
:1014E00003D122F070064A683243984205D0B842D0
:1014F00003D0A04201D0A84203D122F44074CA68AC
:1015000022434C6922F08002224302608A68C26250
:101510000A688262984201D109690163012141612F
:10152000F0BD0000002C0140000400400008004015
:1015300010B5846842EA032224F47F440A4322431C
:10154000826010BD826822F070020A4342F00701F7
:101550008160704710B5036A046A24F001040462D4
:10156000846924F0F00444EA021423F00A020A43D6
:101570008461026210BD10B5036A046A24F010048D
:101580000462846923F0A00324F4704444EA023224
:1015900043EA01118261016210BDFEE70907090EED
:1015A000002804DB00F1E02080F80014704700F010
:1015B0000F0000F1E02080F8141D704770B50A4C50
:1015C000207900280ED00020084D207101225103FF
:1015D0002846FEF76EFF012291032846FEF769FFB9
:1015E0000120A07070BD000000000020000C014030
:1015F0000449002249680B685A6209684A6A8242B3
:10160000FCD370472400002070B50A4C20790028D4
:101610000ED00020084D2071012251032846FEF70C
:1016200048FF012291032846FEF743FF0120A070E6
:1016300070BD000000000020000C014070B5094C96
:10164000207901280DD00125074E2571002269035C
:101650003046FEF72EFF0022A9033046FEF729FF91
:10166000A57070BD00000020000C0140FEF734FFA3
:10167000FFF764FEFFF742FCFFF7F4FCFFF78CFC7A
:10168000FFF7BEFC7C49A1F1D800FFF783FD7A4843
:101690009038FFF7D9FA78484838FFF7D5FADFF8DD
:1016A000DC91012211024C464846FEF702FF01225E
:1016B00051022046FEF7FDFE4FF4806A0122554696
:1016C00051462046FEF7F5FE4FF4006B01225E46C0
:1016D00059462046FEF7EDFEDFF8A48101221146AF
:1016E00044464046FEF7E5FE012202212046FEF771
:1016F000E0FE012229462046FEF7DBFE01223146AC
:101700002046FEF7D6FE01265E4C5B4D0027A87AE8
:1017100008B1002202E0287A30B10122402140467F
:10172000FEF7C7FE267000E02770E87A08B10122B4
:1017300002E0687A38B100224FF400714046FEF7AB
:10174000B8FE667000E06770E87C30B1FF2807D013
:10175000A87C40B1FF2809D00AE0FFF755FF07E059
:10176000FFF72CFF04E0FFF769FF01E000F08EF8BF
:10177000287850B1E0880A30E080C820FEF78AFD62
:10178000E088B42801D9B420E080E87850B1E0883E
:101790000A38E080C820FEF77DFDE088142801D2D9
:1017A0001420E080E87B08B1012202E0E87930B142
:1017B000002204214846FEF77CFEE6700EE02089F8
:1017C0000A2804D030480088E82805D005E0282001
:1017D00020812D48078000E0E770E770287B38B152
:1017E0004FF400714846FEF75CFEC820FEF752FD3C
:1017F000687B38B14FF480714846FEF752FEC8202E
:10180000FEF748FDA87B30B151464846FEF749FE39
:10181000C820FEF73FFDA87830B102214046FEF710
:1018200040FEC820FEF736FD287930B159464846BB
:10183000FEF737FEC820FEF72DFD687930B1594616
:101840004046FEF72EFEC820FEF724FDA87930B1F1
:1018500051464046FEF725FEC820FEF71BFD68787E
:1018600000283FF454AF01214046FEF71AFEC8207D
:10187000FEF710FD4BE700000401002000080140C6
:10188000000C0140000000201200002070B5094C3F
:10189000207901280DD00125074E2571002269030A
:1018A0003046FEF706FE0022A9033046FEF701FE91
:1018B000A57070BD00000020000C01400102020371
:1018C0000405060708090A0B0C0D0E0F1010000086
:1018D00000000000000001020304060708090000E0
:1018E0000142000000000000014300010000000070
:1018F000014400010300000000000000014200005C
:10190000000000000000000028190008000000206E
:101910002C00000028010008541900082C000020A9
:101920004C070000440100080000000000006400B3
:1019300014000A0000000000000000000100000088
:1019400010000000000000000024F400000000006F
:041950000000000093
:04000005080000ED02
:00000001FF
